{
  "transactions": [
    {
      "hash": "0x43dc6472f36a3d62f2e9974e9ea03f35d2c17938ba5acc2ca0b12be529387adf",
      "transactionType": "CALL",
      "contractName": null,
      "contractAddress": "0x4df56710d47dfcbbc4ab1231661bbb5b7a32f24d",
      "function": "applyChainUpdates(uint64[],(uint64,bytes[],bytes,(bool,uint128,uint128),(bool,uint128,uint128))[])",
      "arguments": [
        "[]",
        "[(6898391096552792247, [0x000000000000000000000000260d7da189ba9e2d974e6209f0c730abf33a7d80], 0x000000000000000000000000e85cacd92f7d9d9713cc913cb30643fb79639592, (false, 0, 0), (false, 0, 0))]"
      ],
      "transaction": {
        "from": "0xb1562b51c970f3a007614c2aaa60f4dc1c216362",
        "to": "0x4df56710d47dfcbbc4ab1231661bbb5b7a32f24d",
        "gas": "0x6a2f6",
        "value": "0x0",
        "input": "0xe8a1da17000000000000000000000000000000000000000000000000000000000000004000000000000000000000000000000000000000000000000000000000000000600000000000000000000000000000000000000000000000000000000000000000000000000000000000000000000000000000000000000000000000000000000100000000000000000000000000000000000000000000000000000000000000200000000000000000000000000000000000000000000000005fbc02272fbf20b7000000000000000000000000000000000000000000000000000000000000012000000000000000000000000000000000000000000000000000000000000001a0000000000000000000000000000000000000000000000000000000000000000000000000000000000000000000000000000000000000000000000000000000000000000000000000000000000000000000000000000000000000000000000000000000000000000000000000000000000000000000000000000000000000000000000000000000000000000000000000000000000000000000000000000000000000000000000000000000000000000000000000000000000000000000000000000000000000000000000000000000000000000000000000000000000000000100000000000000000000000000000000000000000000000000000000000000200000000000000000000000000000000000000000000000000000000000000020000000000000000000000000260d7da189ba9e2d974e6209f0c730abf33a7d800000000000000000000000000000000000000000000000000000000000000020000000000000000000000000e85cacd92f7d9d9713cc913cb30643fb79639592",
        "nonce": "0x81",
        "chainId": "0xaa36a7"
      },
      "additionalContracts": [],
      "isFixedGasLimit": false
    }
  ],
  "receipts": [
    {
      "status": "0x1",
      "cumulativeGasUsed": "0xa62098",
      "logs": [
        {
          "address": "0x4df56710d47dfcbbc4ab1231661bbb5b7a32f24d",
          "topics": [
            "0x7d628c9a1796743d365ab521a8b2a4686e419b3269919dc9145ea2ce853b54ea",
            "0x0000000000000000000000000000000000000000000000005fbc02272fbf20b7"
          ],
          "data": "0x00000000000000000000000000000000000000000000000000000000000000200000000000000000000000000000000000000000000000000000000000000020000000000000000000000000260d7da189ba9e2d974e6209f0c730abf33a7d80",
          "blockHash": "0x397cde324bf28ab7dd5070874dc7d726db262fd50cc17c8a8c99feff59a0afb5",
          "blockNumber": "0x9faea2",
          "blockTimestamp": "0x69b98a04",
          "transactionHash": "0x43dc6472f36a3d62f2e9974e9ea03f35d2c17938ba5acc2ca0b12be529387adf",
          "transactionIndex": "0x51",
          "logIndex": "0xa4",
          "removed": false
        },
        {
          "address": "0x4df56710d47dfcbbc4ab1231661bbb5b7a32f24d",
          "topics": [
            "0x8d340f17e19058004c20453540862a9c62778504476f6756755cb33bcd6c38c2"
          ],
          "data": "0x0000000000000000000000000000000000000000000000005fbc02272fbf20b700000000000000000000000000000000000000000000000000000000000001000000000000000000000000000000000000000000000000000000000000000000000000000000000000000000000000000000000000000000000000000000000000000000000000000000000000000000000000000000000000000000000000000000000000000000000000000000000000000000000000000000000000000000000000000000000000000000000000000000000000000000000000000000000000000000000000000000000000000000000000000000000000000000000000000000000000000000000000000000000000000000000000000000000000000020000000000000000000000000e85cacd92f7d9d9713cc913cb30643fb79639592",
          "blockHash": "0x397cde324bf28ab7dd5070874dc7d726db262fd50cc17c8a8c99feff59a0afb5",
          "blockNumber": "0x9faea2",
          "blockTimestamp": "0x69b98a04",
          "transactionHash": "0x43dc6472f36a3d62f2e9974e9ea03f35d2c17938ba5acc2ca0b12be529387adf",
          "transactionIndex": "0x51",
          "logIndex": "0xa5",
          "removed": false
        }
      ],
      "logsBloom": "0x00000000000000400000000000000000000000000000000000000000000000000000000000000000000000000000000000000000000000000004000080000004000000000000000000000000040000000000000000000000000000000000000000000000000000000000000000000040000000000000000000000000000000400000000000000000000000000000000000000000000000000000000000000000000000000000008000000000000000000000000000000000040000000000000000000000000000000000000000000000000008000000000000000000000000000000000000000000000000000000000000000000008000000100000000000000",
      "type": "0x2",
      "transactionHash": "0x43dc6472f36a3d62f2e9974e9ea03f35d2c17938ba5acc2ca0b12be529387adf",
      "transactionIndex": "0x51",
      "blockHash": "0x397cde324bf28ab7dd5070874dc7d726db262fd50cc17c8a8c99feff59a0afb5",
      "blockNumber": "0x9faea2",
      "gasUsed": "0x4ce05",
      "effectiveGasPrice": "0xf424a",
      "from": "0xb1562b51c970f3a007614c2aaa60f4dc1c216362",
      "to": "0x4df56710d47dfcbbc4ab1231661bbb5b7a32f24d",
      "contractAddress": null
    }
  ],
  "libraries": [],
  "pending": [],
  "returns": {},
  "timestamp": 1773767173547,
  "chain": 11155111,
  "commit": "b396366"
}