{
  "transactions": [
    {
      "hash": "0xdf6c8ff2edb4c47345ef937d2feea95e46ad96fe708a3cb98c633ba23a3b06ba",
      "transactionType": "CALL",
      "contractName": null,
      "contractAddress": "0x226c5200388b33192121e1627f90ca83d68e5f05",
      "function": "applyChainUpdates(uint64[],(uint64,bytes[],bytes,(bool,uint128,uint128),(bool,uint128,uint128))[])",
      "arguments": [
        "[]",
        "[(6898391096552792247, [0x0000000000000000000000007c0af0a70929a38aa8e54c961ea98946e4d9b814], 0x000000000000000000000000c9fc9ffaf5384333e4c6fd25a93e0a6c9686c0b9, (false, 0, 0), (false, 0, 0))]"
      ],
      "transaction": {
        "from": "0xb1562b51c970f3a007614c2aaa60f4dc1c216362",
        "to": "0x226c5200388b33192121e1627f90ca83d68e5f05",
        "gas": "0x6a2f6",
        "value": "0x0",
        "input": "0xe8a1da17000000000000000000000000000000000000000000000000000000000000004000000000000000000000000000000000000000000000000000000000000000600000000000000000000000000000000000000000000000000000000000000000000000000000000000000000000000000000000000000000000000000000000100000000000000000000000000000000000000000000000000000000000000200000000000000000000000000000000000000000000000005fbc02272fbf20b7000000000000000000000000000000000000000000000000000000000000012000000000000000000000000000000000000000000000000000000000000001a00000000000000000000000000000000000000000000000000000000000000000000000000000000000000000000000000000000000000000000000000000000000000000000000000000000000000000000000000000000000000000000000000000000000000000000000000000000000000000000000000000000000000000000000000000000000000000000000000000000000000000000000000000000000000000000000000000000000000000000000000000000000000000000000000000000000000000000000000000000000000000000000000000000000000001000000000000000000000000000000000000000000000000000000000000002000000000000000000000000000000000000000000000000000000000000000200000000000000000000000007c0af0a70929a38aa8e54c961ea98946e4d9b8140000000000000000000000000000000000000000000000000000000000000020000000000000000000000000c9fc9ffaf5384333e4c6fd25a93e0a6c9686c0b9",
        "nonce": "0x8c",
        "chainId": "0xaa36a7"
      },
      "additionalContracts": [],
      "isFixedGasLimit": false
    }
  ],
  "receipts": [
    {
      "status": "0x1",
      "cumulativeGasUsed": "0x180797d",
      "logs": [
        {
          "address": "0x226c5200388b33192121e1627f90ca83d68e5f05",
          "topics": [
            "0x7d628c9a1796743d365ab521a8b2a4686e419b3269919dc9145ea2ce853b54ea",
            "0x0000000000000000000000000000000000000000000000005fbc02272fbf20b7"
          ],
          "data": "0x000000000000000000000000000000000000000000000000000000000000002000000000000000000000000000000000000000000000000000000000000000200000000000000000000000007c0af0a70929a38aa8e54c961ea98946e4d9b814",
          "blockHash": "0x4e4f3e5f035eb36fa01daddd44cda215e12b4358341985dd3206a961e03e2909",
          "blockNumber": "0x9faede",
          "blockTimestamp": "0x69b98d7c",
          "transactionHash": "0xdf6c8ff2edb4c47345ef937d2feea95e46ad96fe708a3cb98c633ba23a3b06ba",
          "transactionIndex": "0xa6",
          "logIndex": "0x187",
          "removed": false
        },
        {
          "address": "0x226c5200388b33192121e1627f90ca83d68e5f05",
          "topics": [
            "0x8d340f17e19058004c20453540862a9c62778504476f6756755cb33bcd6c38c2"
          ],
          "data": "0x0000000000000000000000000000000000000000000000005fbc02272fbf20b700000000000000000000000000000000000000000000000000000000000001000000000000000000000000000000000000000000000000000000000000000000000000000000000000000000000000000000000000000000000000000000000000000000000000000000000000000000000000000000000000000000000000000000000000000000000000000000000000000000000000000000000000000000000000000000000000000000000000000000000000000000000000000000000000000000000000000000000000000000000000000000000000000000000000000000000000000000000000000000000000000000000000000000000000000020000000000000000000000000c9fc9ffaf5384333e4c6fd25a93e0a6c9686c0b9",
          "blockHash": "0x4e4f3e5f035eb36fa01daddd44cda215e12b4358341985dd3206a961e03e2909",
          "blockNumber": "0x9faede",
          "blockTimestamp": "0x69b98d7c",
          "transactionHash": "0xdf6c8ff2edb4c47345ef937d2feea95e46ad96fe708a3cb98c633ba23a3b06ba",
          "transactionIndex": "0xa6",
          "logIndex": "0x188",
          "removed": false
        }
      ],
      "logsBloom": "0x00000000000000400000000000000000000000000000000000000002000000000000000000000000000000000000000000000000000000000004001000100004000000000000000000000000040000000000000000000000000000000000000000000000000000000000000000000040000000000000000000000000000000400000000000000000000000000000000000000000000000000000000000000000000000000000008000000000000000000000000000000000000000000000000000000000000000000000000000000000000000000000000000000000000000000000000000000000000000000000000000000000008000000100000000000000",
      "type": "0x2",
      "transactionHash": "0xdf6c8ff2edb4c47345ef937d2feea95e46ad96fe708a3cb98c633ba23a3b06ba",
      "transactionIndex": "0xa6",
      "blockHash": "0x4e4f3e5f035eb36fa01daddd44cda215e12b4358341985dd3206a961e03e2909",
      "blockNumber": "0x9faede",
      "gasUsed": "0x4ce05",
      "effectiveGasPrice": "0x10196f",
      "from": "0xb1562b51c970f3a007614c2aaa60f4dc1c216362",
      "to": "0x226c5200388b33192121e1627f90ca83d68e5f05",
      "contractAddress": null
    }
  ],
  "libraries": [],
  "pending": [],
  "returns": {},
  "timestamp": 1773768060742,
  "chain": 11155111,
  "commit": "b396366"
}