{
  "transactions": [
    {
      "hash": "0xc6fac25a98c37717243080504e82682da3a47e1c93dca66ff0a2fc41bac59ab9",
      "transactionType": "CALL",
      "contractName": null,
      "contractAddress": "0x041d8eebef7c4eaa057e02b10c2e047727a57939",
      "function": "applyChainUpdates(uint64[],(uint64,bytes[],bytes,(bool,uint128,uint128),(bool,uint128,uint128))[])",
      "arguments": [
        "[]",
        "[(6898391096552792247, [0x0000000000000000000000009894ac211c62a1242beaec1acec0087e95406821], 0x000000000000000000000000fcf37547d0dcb25916b0c3c53b932eace1f9864c, (false, 0, 0), (false, 0, 0))]"
      ],
      "transaction": {
        "from": "0xb1562b51c970f3a007614c2aaa60f4dc1c216362",
        "to": "0x041d8eebef7c4eaa057e02b10c2e047727a57939",
        "gas": "0x6a2f6",
        "value": "0x0",
        "input": "0xe8a1da17000000000000000000000000000000000000000000000000000000000000004000000000000000000000000000000000000000000000000000000000000000600000000000000000000000000000000000000000000000000000000000000000000000000000000000000000000000000000000000000000000000000000000100000000000000000000000000000000000000000000000000000000000000200000000000000000000000000000000000000000000000005fbc02272fbf20b7000000000000000000000000000000000000000000000000000000000000012000000000000000000000000000000000000000000000000000000000000001a00000000000000000000000000000000000000000000000000000000000000000000000000000000000000000000000000000000000000000000000000000000000000000000000000000000000000000000000000000000000000000000000000000000000000000000000000000000000000000000000000000000000000000000000000000000000000000000000000000000000000000000000000000000000000000000000000000000000000000000000000000000000000000000000000000000000000000000000000000000000000000000000000000000000000001000000000000000000000000000000000000000000000000000000000000002000000000000000000000000000000000000000000000000000000000000000200000000000000000000000009894ac211c62a1242beaec1acec0087e954068210000000000000000000000000000000000000000000000000000000000000020000000000000000000000000fcf37547d0dcb25916b0c3c53b932eace1f9864c",
        "nonce": "0x5a",
        "chainId": "0xaa36a7"
      },
      "additionalContracts": [],
      "isFixedGasLimit": false
    }
  ],
  "receipts": [
    {
      "status": "0x1",
      "cumulativeGasUsed": "0x9737ad",
      "logs": [
        {
          "address": "0x041d8eebef7c4eaa057e02b10c2e047727a57939",
          "topics": [
            "0x7d628c9a1796743d365ab521a8b2a4686e419b3269919dc9145ea2ce853b54ea",
            "0x0000000000000000000000000000000000000000000000005fbc02272fbf20b7"
          ],
          "data": "0x000000000000000000000000000000000000000000000000000000000000002000000000000000000000000000000000000000000000000000000000000000200000000000000000000000009894ac211c62a1242beaec1acec0087e95406821",
          "blockHash": "0x8d7c2576dad56147c945d348473515f431cbddb39ee7e0a9c578c876e58e19a5",
          "blockNumber": "0x9fae1b",
          "blockTimestamp": "0x69b98230",
          "transactionHash": "0xc6fac25a98c37717243080504e82682da3a47e1c93dca66ff0a2fc41bac59ab9",
          "transactionIndex": "0x4c",
          "logIndex": "0x9c",
          "removed": false
        },
        {
          "address": "0x041d8eebef7c4eaa057e02b10c2e047727a57939",
          "topics": [
            "0x8d340f17e19058004c20453540862a9c62778504476f6756755cb33bcd6c38c2"
          ],
          "data": "0x0000000000000000000000000000000000000000000000005fbc02272fbf20b700000000000000000000000000000000000000000000000000000000000001000000000000000000000000000000000000000000000000000000000000000000000000000000000000000000000000000000000000000000000000000000000000000000000000000000000000000000000000000000000000000000000000000000000000000000000000000000000000000000000000000000000000000000000000000000000000000000000000000000000000000000000000000000000000000000000000000000000000000000000000000000000000000000000000000000000000000000000000000000000000000000000000000000000000000020000000000000000000000000fcf37547d0dcb25916b0c3c53b932eace1f9864c",
          "blockHash": "0x8d7c2576dad56147c945d348473515f431cbddb39ee7e0a9c578c876e58e19a5",
          "blockNumber": "0x9fae1b",
          "blockTimestamp": "0x69b98230",
          "transactionHash": "0xc6fac25a98c37717243080504e82682da3a47e1c93dca66ff0a2fc41bac59ab9",
          "transactionIndex": "0x4c",
          "logIndex": "0x9d",
          "removed": false
        }
      ],
      "logsBloom": "0x00000000000000400000000000000000000000000000000000000000000000000000000000000000000000000000000000000000000040000004000000000004000000000000000000000000040000000000000000000000000000000000000000000000000000000008000000000040000000000000000000000000000000400000000000000000000000000000000000000000000000000000000000000000000000000000008000000000000000000000000000000000000000000000000000000080000000000000000000000000000000000000000000000000000000000000000000000000000000000000000000000000008000000100000000000000",
      "type": "0x2",
      "transactionHash": "0xc6fac25a98c37717243080504e82682da3a47e1c93dca66ff0a2fc41bac59ab9",
      "transactionIndex": "0x4c",
      "blockHash": "0x8d7c2576dad56147c945d348473515f431cbddb39ee7e0a9c578c876e58e19a5",
      "blockNumber": "0x9fae1b",
      "gasUsed": "0x4ce05",
      "effectiveGasPrice": "0xf424a",
      "from": "0xb1562b51c970f3a007614c2aaa60f4dc1c216362",
      "to": "0x041d8eebef7c4eaa057e02b10c2e047727a57939",
      "contractAddress": null
    }
  ],
  "libraries": [],
  "pending": [],
  "returns": {},
  "timestamp": 1773765168994,
  "chain": 11155111,
  "commit": "b396366"
}