{
  "transactions": [
    {
      "hash": "0xc411946d6405631269b65749971223bbb461eee2dceb9570cc60e837a583ac54",
      "transactionType": "CALL",
      "contractName": null,
      "contractAddress": "0xc1bf1b7452d0704acbf12227b39320da7ee3065b",
      "function": "applyChainUpdates(uint64[],(uint64,bytes[],bytes,(bool,uint128,uint128),(bool,uint128,uint128))[])",
      "arguments": [
        "[]",
        "[(6898391096552792247, [0x000000000000000000000000f45a6d55da23642eb37f4c19711fc44b557384d3], 0x0000000000000000000000004f3673779e2bf9cd5113f02f81ff33efe22c7eb3, (false, 0, 0), (false, 0, 0))]"
      ],
      "transaction": {
        "from": "0xb1562b51c970f3a007614c2aaa60f4dc1c216362",
        "to": "0xc1bf1b7452d0704acbf12227b39320da7ee3065b",
        "gas": "0x6a2f6",
        "value": "0x0",
        "input": "0xe8a1da17000000000000000000000000000000000000000000000000000000000000004000000000000000000000000000000000000000000000000000000000000000600000000000000000000000000000000000000000000000000000000000000000000000000000000000000000000000000000000000000000000000000000000100000000000000000000000000000000000000000000000000000000000000200000000000000000000000000000000000000000000000005fbc02272fbf20b7000000000000000000000000000000000000000000000000000000000000012000000000000000000000000000000000000000000000000000000000000001a0000000000000000000000000000000000000000000000000000000000000000000000000000000000000000000000000000000000000000000000000000000000000000000000000000000000000000000000000000000000000000000000000000000000000000000000000000000000000000000000000000000000000000000000000000000000000000000000000000000000000000000000000000000000000000000000000000000000000000000000000000000000000000000000000000000000000000000000000000000000000000000000000000000000000000100000000000000000000000000000000000000000000000000000000000000200000000000000000000000000000000000000000000000000000000000000020000000000000000000000000f45a6d55da23642eb37f4c19711fc44b557384d300000000000000000000000000000000000000000000000000000000000000200000000000000000000000004f3673779e2bf9cd5113f02f81ff33efe22c7eb3",
        "nonce": "0x4e",
        "chainId": "0xaa36a7"
      },
      "additionalContracts": [],
      "isFixedGasLimit": false
    }
  ],
  "receipts": [
    {
      "status": "0x1",
      "cumulativeGasUsed": "0xb4c193",
      "logs": [
        {
          "address": "0xc1bf1b7452d0704acbf12227b39320da7ee3065b",
          "topics": [
            "0x7d628c9a1796743d365ab521a8b2a4686e419b3269919dc9145ea2ce853b54ea",
            "0x0000000000000000000000000000000000000000000000005fbc02272fbf20b7"
          ],
          "data": "0x00000000000000000000000000000000000000000000000000000000000000200000000000000000000000000000000000000000000000000000000000000020000000000000000000000000f45a6d55da23642eb37f4c19711fc44b557384d3",
          "blockHash": "0xd1b18b082b5b82ea53352fd39ac1d752f1c2a69e3e31dde83292c8a47dbfe6b1",
          "blockNumber": "0x9fad4d",
          "blockTimestamp": "0x69b97708",
          "transactionHash": "0xc411946d6405631269b65749971223bbb461eee2dceb9570cc60e837a583ac54",
          "transactionIndex": "0x53",
          "logIndex": "0x9e",
          "removed": false
        },
        {
          "address": "0xc1bf1b7452d0704acbf12227b39320da7ee3065b",
          "topics": [
            "0x8d340f17e19058004c20453540862a9c62778504476f6756755cb33bcd6c38c2"
          ],
          "data": "0x0000000000000000000000000000000000000000000000005fbc02272fbf20b7000000000000000000000000000000000000000000000000000000000000010000000000000000000000000000000000000000000000000000000000000000000000000000000000000000000000000000000000000000000000000000000000000000000000000000000000000000000000000000000000000000000000000000000000000000000000000000000000000000000000000000000000000000000000000000000000000000000000000000000000000000000000000000000000000000000000000000000000000000000000000000000000000000000000000000000000000000000000000000000000000000000000000000000000000000200000000000000000000000004f3673779e2bf9cd5113f02f81ff33efe22c7eb3",
          "blockHash": "0xd1b18b082b5b82ea53352fd39ac1d752f1c2a69e3e31dde83292c8a47dbfe6b1",
          "blockNumber": "0x9fad4d",
          "blockTimestamp": "0x69b97708",
          "transactionHash": "0xc411946d6405631269b65749971223bbb461eee2dceb9570cc60e837a583ac54",
          "transactionIndex": "0x53",
          "logIndex": "0x9f",
          "removed": false
        }
      ],
      "logsBloom": "0x00000000000000400000000000000000000000000000000000000000000000000000000000000000000000000000000000000000000000000004080000000004000000000000000000000000040000000000000000000000000000000000000000000000000000020000000000000040000000000000000000000000000000400000000000000000000000000000000000000000000000000000000000000000000000000000008000000000000000000000000000000000000000000000000000000000000000000000000000000000000000000000000000000002000000000000000000000000000000000000000000000000008000000100000000000000",
      "type": "0x2",
      "transactionHash": "0xc411946d6405631269b65749971223bbb461eee2dceb9570cc60e837a583ac54",
      "transactionIndex": "0x53",
      "blockHash": "0xd1b18b082b5b82ea53352fd39ac1d752f1c2a69e3e31dde83292c8a47dbfe6b1",
      "blockNumber": "0x9fad4d",
      "gasUsed": "0x4ce05",
      "effectiveGasPrice": "0xf424a",
      "from": "0xb1562b51c970f3a007614c2aaa60f4dc1c216362",
      "to": "0xc1bf1b7452d0704acbf12227b39320da7ee3065b",
      "contractAddress": null
    }
  ],
  "libraries": [],
  "pending": [],
  "returns": {},
  "timestamp": 1773762313492,
  "chain": 11155111,
  "commit": "b396366"
}