{
  "transactions": [
    {
      "hash": "0x127c1d78e72bd21abd3daa8714dcbb580d456625d8ce627577bb939a2d07edea",
      "transactionType": "CALL",
      "contractName": null,
      "contractAddress": "0x5bd3ee876cd4bb59869c9a6c6b63f13a5203cecb",
      "function": "applyChainUpdates(uint64[],(uint64,bytes[],bytes,(bool,uint128,uint128),(bool,uint128,uint128))[])",
      "arguments": [
        "[]",
        "[(6898391096552792247, [0x000000000000000000000000b3ae960d970e3a1a8fbd1618356f28baab8904b3], 0x0000000000000000000000005304fe29554cc1ca0a9e9cf6a650af835d3f07f6, (false, 0, 0), (false, 0, 0))]"
      ],
      "transaction": {
        "from": "0xb1562b51c970f3a007614c2aaa60f4dc1c216362",
        "to": "0x5bd3ee876cd4bb59869c9a6c6b63f13a5203cecb",
        "gas": "0x6a2f6",
        "value": "0x0",
        "input": "0xe8a1da17000000000000000000000000000000000000000000000000000000000000004000000000000000000000000000000000000000000000000000000000000000600000000000000000000000000000000000000000000000000000000000000000000000000000000000000000000000000000000000000000000000000000000100000000000000000000000000000000000000000000000000000000000000200000000000000000000000000000000000000000000000005fbc02272fbf20b7000000000000000000000000000000000000000000000000000000000000012000000000000000000000000000000000000000000000000000000000000001a0000000000000000000000000000000000000000000000000000000000000000000000000000000000000000000000000000000000000000000000000000000000000000000000000000000000000000000000000000000000000000000000000000000000000000000000000000000000000000000000000000000000000000000000000000000000000000000000000000000000000000000000000000000000000000000000000000000000000000000000000000000000000000000000000000000000000000000000000000000000000000000000000000000000000000100000000000000000000000000000000000000000000000000000000000000200000000000000000000000000000000000000000000000000000000000000020000000000000000000000000b3ae960d970e3a1a8fbd1618356f28baab8904b300000000000000000000000000000000000000000000000000000000000000200000000000000000000000005304fe29554cc1ca0a9e9cf6a650af835d3f07f6",
        "nonce": "0x6b",
        "chainId": "0xaa36a7"
      },
      "additionalContracts": [],
      "isFixedGasLimit": false
    }
  ],
  "receipts": [
    {
      "status": "0x1",
      "cumulativeGasUsed": "0xfb6f02",
      "logs": [
        {
          "address": "0x5bd3ee876cd4bb59869c9a6c6b63f13a5203cecb",
          "topics": [
            "0x7d628c9a1796743d365ab521a8b2a4686e419b3269919dc9145ea2ce853b54ea",
            "0x0000000000000000000000000000000000000000000000005fbc02272fbf20b7"
          ],
          "data": "0x00000000000000000000000000000000000000000000000000000000000000200000000000000000000000000000000000000000000000000000000000000020000000000000000000000000b3ae960d970e3a1a8fbd1618356f28baab8904b3",
          "blockHash": "0x3fe2d1b19609503cb6df8372ce641be2c573f2b3c450d63c54153cb78bc6364f",
          "blockNumber": "0x9fae72",
          "blockTimestamp": "0x69b98770",
          "transactionHash": "0x127c1d78e72bd21abd3daa8714dcbb580d456625d8ce627577bb939a2d07edea",
          "transactionIndex": "0x9b",
          "logIndex": "0x12c",
          "removed": false
        },
        {
          "address": "0x5bd3ee876cd4bb59869c9a6c6b63f13a5203cecb",
          "topics": [
            "0x8d340f17e19058004c20453540862a9c62778504476f6756755cb33bcd6c38c2"
          ],
          "data": "0x0000000000000000000000000000000000000000000000005fbc02272fbf20b7000000000000000000000000000000000000000000000000000000000000010000000000000000000000000000000000000000000000000000000000000000000000000000000000000000000000000000000000000000000000000000000000000000000000000000000000000000000000000000000000000000000000000000000000000000000000000000000000000000000000000000000000000000000000000000000000000000000000000000000000000000000000000000000000000000000000000000000000000000000000000000000000000000000000000000000000000000000000000000000000000000000000000000000000000000200000000000000000000000005304fe29554cc1ca0a9e9cf6a650af835d3f07f6",
          "blockHash": "0x3fe2d1b19609503cb6df8372ce641be2c573f2b3c450d63c54153cb78bc6364f",
          "blockNumber": "0x9fae72",
          "blockTimestamp": "0x69b98770",
          "transactionHash": "0x127c1d78e72bd21abd3daa8714dcbb580d456625d8ce627577bb939a2d07edea",
          "transactionIndex": "0x9b",
          "logIndex": "0x12d",
          "removed": false
        }
      ],
      "logsBloom": "0x00000000000000400000000000000000000000000000000000000000000000000000000000000000000000000000000000000000000000000004000000000004000000000000000000000000040000000000000000000000000000000000000000000000000000000000000000000040000000000000000000000000000000400000000000000000000000000000000000000080002000000000000100000000000000000000008000000000000000000000000000000000000000000000000000000000000000000000000000000000000000000000000000000000000000000000000000000000000000000000000000000000008000000100000000000000",
      "type": "0x2",
      "transactionHash": "0x127c1d78e72bd21abd3daa8714dcbb580d456625d8ce627577bb939a2d07edea",
      "transactionIndex": "0x9b",
      "blockHash": "0x3fe2d1b19609503cb6df8372ce641be2c573f2b3c450d63c54153cb78bc6364f",
      "blockNumber": "0x9fae72",
      "gasUsed": "0x4ce05",
      "effectiveGasPrice": "0xf424b",
      "from": "0xb1562b51c970f3a007614c2aaa60f4dc1c216362",
      "to": "0x5bd3ee876cd4bb59869c9a6c6b63f13a5203cecb",
      "contractAddress": null
    }
  ],
  "libraries": [],
  "pending": [],
  "returns": {},
  "timestamp": 1773766512757,
  "chain": 11155111,
  "commit": "b396366"
}