{
  "transactions": [
    {
      "hash": "0x0e2681446e197596b7979362d74e87cc861d0394635959158540b361404f8b9e",
      "transactionType": "CALL",
      "contractName": null,
      "contractAddress": "0xa8dc24f616c2b9942d48d847a7521a1555fce894",
      "function": "applyChainUpdates(uint64[],(uint64,bytes[],bytes,(bool,uint128,uint128),(bool,uint128,uint128))[])",
      "arguments": [
        "[]",
        "[(6898391096552792247, [0x00000000000000000000000023dbfc19365db880998c30d6327503e02bf3d2b6], 0x0000000000000000000000003e96266565b050a545d34912e6aa58d586fb39c5, (false, 0, 0), (false, 0, 0))]"
      ],
      "transaction": {
        "from": "0xb1562b51c970f3a007614c2aaa60f4dc1c216362",
        "to": "0xa8dc24f616c2b9942d48d847a7521a1555fce894",
        "gas": "0x6a2f6",
        "value": "0x0",
        "input": "0xe8a1da17000000000000000000000000000000000000000000000000000000000000004000000000000000000000000000000000000000000000000000000000000000600000000000000000000000000000000000000000000000000000000000000000000000000000000000000000000000000000000000000000000000000000000100000000000000000000000000000000000000000000000000000000000000200000000000000000000000000000000000000000000000005fbc02272fbf20b7000000000000000000000000000000000000000000000000000000000000012000000000000000000000000000000000000000000000000000000000000001a000000000000000000000000000000000000000000000000000000000000000000000000000000000000000000000000000000000000000000000000000000000000000000000000000000000000000000000000000000000000000000000000000000000000000000000000000000000000000000000000000000000000000000000000000000000000000000000000000000000000000000000000000000000000000000000000000000000000000000000000000000000000000000000000000000000000000000000000000000000000000000000000000000000000000010000000000000000000000000000000000000000000000000000000000000020000000000000000000000000000000000000000000000000000000000000002000000000000000000000000023dbfc19365db880998c30d6327503e02bf3d2b600000000000000000000000000000000000000000000000000000000000000200000000000000000000000003e96266565b050a545d34912e6aa58d586fb39c5",
        "nonce": "0x76",
        "chainId": "0xaa36a7"
      },
      "additionalContracts": [],
      "isFixedGasLimit": false
    }
  ],
  "receipts": [
    {
      "status": "0x1",
      "cumulativeGasUsed": "0xc73a55",
      "logs": [
        {
          "address": "0xa8dc24f616c2b9942d48d847a7521a1555fce894",
          "topics": [
            "0x7d628c9a1796743d365ab521a8b2a4686e419b3269919dc9145ea2ce853b54ea",
            "0x0000000000000000000000000000000000000000000000005fbc02272fbf20b7"
          ],
          "data": "0x0000000000000000000000000000000000000000000000000000000000000020000000000000000000000000000000000000000000000000000000000000002000000000000000000000000023dbfc19365db880998c30d6327503e02bf3d2b6",
          "blockHash": "0x1624fd8833931589eb15b13bd17ba9dd43d1a5aa358e5a6c985c9fd091d6c956",
          "blockNumber": "0x9fae86",
          "blockTimestamp": "0x69b9889c",
          "transactionHash": "0x0e2681446e197596b7979362d74e87cc861d0394635959158540b361404f8b9e",
          "transactionIndex": "0x59",
          "logIndex": "0xe4",
          "removed": false
        },
        {
          "address": "0xa8dc24f616c2b9942d48d847a7521a1555fce894",
          "topics": [
            "0x8d340f17e19058004c20453540862a9c62778504476f6756755cb33bcd6c38c2"
          ],
          "data": "0x0000000000000000000000000000000000000000000000005fbc02272fbf20b7000000000000000000000000000000000000000000000000000000000000010000000000000000000000000000000000000000000000000000000000000000000000000000000000000000000000000000000000000000000000000000000000000000000000000000000000000000000000000000000000000000000000000000000000000000000000000000000000000000000000000000000000000000000000000000000000000000000000000000000000000000000000000000000000000000000000000000000000000000000000000000000000000000000000000000000000000000000000000000000000000000000000000000000000000000200000000000000000000000003e96266565b050a545d34912e6aa58d586fb39c5",
          "blockHash": "0x1624fd8833931589eb15b13bd17ba9dd43d1a5aa358e5a6c985c9fd091d6c956",
          "blockNumber": "0x9fae86",
          "blockTimestamp": "0x69b9889c",
          "transactionHash": "0x0e2681446e197596b7979362d74e87cc861d0394635959158540b361404f8b9e",
          "transactionIndex": "0x59",
          "logIndex": "0xe5",
          "removed": false
        }
      ],
      "logsBloom": "0x00000000000000400000000000000000000000000000000000000000000000000000000000000000000000000000000000000000000000000004000000000004000000000000000000000000040000000000000000000000000000000000000000000000000000000000000000000040000000000000000000000000000000400000000000000000000000000000000000000000000000000000000000000000000000000800008000000000000080000000000000000000000000000000000000000000000000000000000008000000000000000000000000000000000000000000000000000000000000000000000000000000008000000100000000000000",
      "type": "0x2",
      "transactionHash": "0x0e2681446e197596b7979362d74e87cc861d0394635959158540b361404f8b9e",
      "transactionIndex": "0x59",
      "blockHash": "0x1624fd8833931589eb15b13bd17ba9dd43d1a5aa358e5a6c985c9fd091d6c956",
      "blockNumber": "0x9fae86",
      "gasUsed": "0x4ce05",
      "effectiveGasPrice": "0xf424a",
      "from": "0xb1562b51c970f3a007614c2aaa60f4dc1c216362",
      "to": "0xa8dc24f616c2b9942d48d847a7521a1555fce894",
      "contractAddress": null
    }
  ],
  "libraries": [],
  "pending": [],
  "returns": {},
  "timestamp": 1773766812631,
  "chain": 11155111,
  "commit": "b396366"
}