{
  "transactions": [
    {
      "hash": "0xab30173c5d1e5a54fafb53cc434bd3bd77ad6d20578ec37878c260612e925be8",
      "transactionType": "CALL",
      "contractName": null,
      "contractAddress": "0x779877a7b0d9e8603169ddbd7836e478b4624789",
      "function": "approve(address,uint256)",
      "arguments": [
        "0x0BF3dE8c5D3e8A2B34D2BEeB17ABfCeBaf363A59",
        "25312170150891970"
      ],
      "transaction": {
        "from": "0xb1562b51c970f3a007614c2aaa60f4dc1c216362",
        "to": "0x779877a7b0d9e8603169ddbd7836e478b4624789",
        "gas": "0x1081f",
        "value": "0x0",
        "input": "0x095ea7b30000000000000000000000000bf3de8c5d3e8a2b34d2beeb17abfcebaf363a590000000000000000000000000000000000000000000000000059ed48de5691c2",
        "nonce": "0x8e",
        "chainId": "0xaa36a7"
      },
      "additionalContracts": [],
      "isFixedGasLimit": false
    },
    {
      "hash": "0x1f9b8e13edf35a1b60dcc002462d6c89afecf4b162c95234eb99d4ca47fc9f9d",
      "transactionType": "CALL",
      "contractName": null,
      "contractAddress": "0x7a46dcce4c22cd86a9a452a14c9da3c4f82acff8",
      "function": "approve(address,uint256)",
      "arguments": [
        "0x0BF3dE8c5D3e8A2B34D2BEeB17ABfCeBaf363A59",
        "100000"
      ],
      "transaction": {
        "from": "0xb1562b51c970f3a007614c2aaa60f4dc1c216362",
        "to": "0x7a46dcce4c22cd86a9a452a14c9da3c4f82acff8",
        "gas": "0x10c25",
        "value": "0x0",
        "input": "0x095ea7b30000000000000000000000000bf3de8c5d3e8a2b34d2beeb17abfcebaf363a5900000000000000000000000000000000000000000000000000000000000186a0",
        "nonce": "0x8f",
        "chainId": "0xaa36a7"
      },
      "additionalContracts": [],
      "isFixedGasLimit": false
    },
    {
      "hash": "0x9b57a251f00df2aeb2e04d2dbdab949834a9113ec6d0963081b17c92cffb057e",
      "transactionType": "CALL",
      "contractName": null,
      "contractAddress": "0x0bf3de8c5d3e8a2b34d2beeb17abfcebaf363a59",
      "function": "ccipSend(uint64,(bytes,bytes,(address,uint256)[],address,bytes))",
      "arguments": [
        "6898391096552792247",
        "(0x000000000000000000000000b1562b51c970f3a007614c2aaa60f4dc1c216362, 0x, [(0x7a46DccE4C22cd86a9a452a14C9da3c4F82AcFf8, 100000)], 0x779877A7B0D9E8603169DdbD7836e478b4624789, 0x97a657c90000000000000000000000000000000000000000000000000000000000000000)"
      ],
      "transaction": {
        "from": "0xb1562b51c970f3a007614c2aaa60f4dc1c216362",
        "to": "0x0bf3de8c5d3e8a2b34d2beeb17abfcebaf363a59",
        "gas": "0x62fb9",
        "value": "0x0",
        "input": "0x96f4e9f90000000000000000000000000000000000000000000000005fbc02272fbf20b7000000000000000000000000000000000000000000000000000000000000004000000000000000000000000000000000000000000000000000000000000000a000000000000000000000000000000000000000000000000000000000000000e00000000000000000000000000000000000000000000000000000000000000100000000000000000000000000779877a7b0d9e8603169ddbd7836e478b462478900000000000000000000000000000000000000000000000000000000000001600000000000000000000000000000000000000000000000000000000000000020000000000000000000000000b1562b51c970f3a007614c2aaa60f4dc1c216362000000000000000000000000000000000000000000000000000000000000000000000000000000000000000000000000000000000000000000000000000000010000000000000000000000007a46dcce4c22cd86a9a452a14c9da3c4f82acff800000000000000000000000000000000000000000000000000000000000186a0000000000000000000000000000000000000000000000000000000000000002497a657c9000000000000000000000000000000000000000000000000000000000000000000000000000000000000000000000000000000000000000000000000",
        "nonce": "0x90",
        "chainId": "0xaa36a7"
      },
      "additionalContracts": [],
      "isFixedGasLimit": false
    }
  ],
  "receipts": [
    {
      "status": "0x1",
      "cumulativeGasUsed": "0xf69d03",
      "logs": [
        {
          "address": "0x779877a7b0d9e8603169ddbd7836e478b4624789",
          "topics": [
            "0x8c5be1e5ebec7d5bd14f71427d1e84f3dd0314c0f7b2291e5b200ac8c7c3b925",
            "0x000000000000000000000000b1562b51c970f3a007614c2aaa60f4dc1c216362",
            "0x0000000000000000000000000bf3de8c5d3e8a2b34d2beeb17abfcebaf363a59"
          ],
          "data": "0x0000000000000000000000000000000000000000000000000059ed48de5691c2",
          "blockHash": "0xd24108e2e0294dcc0977d6e22516d2fae9dab4aa560774d5de50984851143811",
          "blockNumber": "0x9faee7",
          "blockTimestamp": "0x69b98df4",
          "transactionHash": "0x1f9b8e13edf35a1b60dcc002462d6c89afecf4b162c95234eb99d4ca47fc9f9d",
          "transactionIndex": "0x7d",
          "logIndex": "0xdd",
          "removed": false
        }
      ],
      "logsBloom": "0x00000004000040000000000000000000000000000000000000000000000000000000000000000000000000000000000000000000000000000000000000200000000000000000000000000000000000000000000000040000000000000000000000000000000100000000000000000000000000000000000000000000000000000000000000000000000000000000800000000000000000000000000000000000020000000000080000000000000000000000010000000004000000000000000000000000000000000000000000000000000000000000000100000000000000000010000000000000000000000000000000000000000000000000000000000000",
      "type": "0x2",
      "transactionHash": "0x1f9b8e13edf35a1b60dcc002462d6c89afecf4b162c95234eb99d4ca47fc9f9d",
      "transactionIndex": "0x7d",
      "blockHash": "0xd24108e2e0294dcc0977d6e22516d2fae9dab4aa560774d5de50984851143811",
      "blockNumber": "0x9faee7",
      "gasUsed": "0xb499",
      "effectiveGasPrice": "0x1018b2",
      "from": "0xb1562b51c970f3a007614c2aaa60f4dc1c216362",
      "to": "0x779877a7b0d9e8603169ddbd7836e478b4624789",
      "contractAddress": null
    },
    {
      "status": "0x1",
      "cumulativeGasUsed": "0xf7545c",
      "logs": [
        {
          "address": "0x7a46dcce4c22cd86a9a452a14c9da3c4f82acff8",
          "topics": [
            "0x8c5be1e5ebec7d5bd14f71427d1e84f3dd0314c0f7b2291e5b200ac8c7c3b925",
            "0x000000000000000000000000b1562b51c970f3a007614c2aaa60f4dc1c216362",
            "0x0000000000000000000000000bf3de8c5d3e8a2b34d2beeb17abfcebaf363a59"
          ],
          "data": "0x00000000000000000000000000000000000000000000000000000000000186a0",
          "blockHash": "0xd24108e2e0294dcc0977d6e22516d2fae9dab4aa560774d5de50984851143811",
          "blockNumber": "0x9faee7",
          "blockTimestamp": "0x69b98df4",
          "transactionHash": "0xab30173c5d1e5a54fafb53cc434bd3bd77ad6d20578ec37878c260612e925be8",
          "transactionIndex": "0x7e",
          "logIndex": "0xde",
          "removed": false
        }
      ],
      "logsBloom": "0x00000008000040000000000000000000000000000000000000000000000000000000000000000000000000000000000000000000000000000000000000200000000000000000000000000000000000000000000000040000000000000000000080000000000100000000000000000000000000000000000000000000000000000000000000000000000000000000000000000000000000000000000000000000020000000000080000000000000000000000010000000004000000000000000000000000000000000000000000000000000000000000000000000000000000000010000000000000000000000000000000000000040000000000000000000000",
      "type": "0x2",
      "transactionHash": "0xab30173c5d1e5a54fafb53cc434bd3bd77ad6d20578ec37878c260612e925be8",
      "transactionIndex": "0x7e",
      "blockHash": "0xd24108e2e0294dcc0977d6e22516d2fae9dab4aa560774d5de50984851143811",
      "blockNumber": "0x9faee7",
      "gasUsed": "0xb759",
      "effectiveGasPrice": "0x1018b2",
      "from": "0xb1562b51c970f3a007614c2aaa60f4dc1c216362",
      "to": "0x7a46dcce4c22cd86a9a452a14c9da3c4f82acff8",
      "contractAddress": null
    },
    {
      "status": "0x1",
      "cumulativeGasUsed": "0xfbcef3",
      "logs": [
        {
          "address": "0x779877a7b0d9e8603169ddbd7836e478b4624789",
          "topics": [
            "0xddf252ad1be2c89b69c2b068fc378daa952ba7f163c4a11628f55a4df523b3ef",
            "0x000000000000000000000000b1562b51c970f3a007614c2aaa60f4dc1c216362",
            "0x00000000000000000000000023a5084fa78104f3df11c63ae59fcac4f6ad9dee"
          ],
          "data": "0x0000000000000000000000000000000000000000000000000059ed48de5691c2",
          "blockHash": "0xd24108e2e0294dcc0977d6e22516d2fae9dab4aa560774d5de50984851143811",
          "blockNumber": "0x9faee7",
          "blockTimestamp": "0x69b98df4",
          "transactionHash": "0x9b57a251f00df2aeb2e04d2dbdab949834a9113ec6d0963081b17c92cffb057e",
          "transactionIndex": "0x7f",
          "logIndex": "0xdf",
          "removed": false
        },
        {
          "address": "0x779877a7b0d9e8603169ddbd7836e478b4624789",
          "topics": [
            "0x8c5be1e5ebec7d5bd14f71427d1e84f3dd0314c0f7b2291e5b200ac8c7c3b925",
            "0x000000000000000000000000b1562b51c970f3a007614c2aaa60f4dc1c216362",
            "0x0000000000000000000000000bf3de8c5d3e8a2b34d2beeb17abfcebaf363a59"
          ],
          "data": "0x0000000000000000000000000000000000000000000000000000000000000000",
          "blockHash": "0xd24108e2e0294dcc0977d6e22516d2fae9dab4aa560774d5de50984851143811",
          "blockNumber": "0x9faee7",
          "blockTimestamp": "0x69b98df4",
          "transactionHash": "0x9b57a251f00df2aeb2e04d2dbdab949834a9113ec6d0963081b17c92cffb057e",
          "transactionIndex": "0x7f",
          "logIndex": "0xe0",
          "removed": false
        },
        {
          "address": "0x7a46dcce4c22cd86a9a452a14c9da3c4f82acff8",
          "topics": [
            "0xddf252ad1be2c89b69c2b068fc378daa952ba7f163c4a11628f55a4df523b3ef",
            "0x0000000000000000000000000000000000000000000000000000000000000000",
            "0x000000000000000000000000b1562b51c970f3a007614c2aaa60f4dc1c216362"
          ],
          "data": "0x0000000000000000000000000000000000000000000000000000000000000000",
          "blockHash": "0xd24108e2e0294dcc0977d6e22516d2fae9dab4aa560774d5de50984851143811",
          "blockNumber": "0x9faee7",
          "blockTimestamp": "0x69b98df4",
          "transactionHash": "0x9b57a251f00df2aeb2e04d2dbdab949834a9113ec6d0963081b17c92cffb057e",
          "transactionIndex": "0x7f",
          "logIndex": "0xe1",
          "removed": false
        },
        {
          "address": "0x7a46dcce4c22cd86a9a452a14c9da3c4f82acff8",
          "topics": [
            "0xddf252ad1be2c89b69c2b068fc378daa952ba7f163c4a11628f55a4df523b3ef",
            "0x0000000000000000000000000000000000000000000000000000000000000000",
            "0x000000000000000000000000226c5200388b33192121e1627f90ca83d68e5f05"
          ],
          "data": "0x0000000000000000000000000000000000000000000000000000000000000000",
          "blockHash": "0xd24108e2e0294dcc0977d6e22516d2fae9dab4aa560774d5de50984851143811",
          "blockNumber": "0x9faee7",
          "blockTimestamp": "0x69b98df4",
          "transactionHash": "0x9b57a251f00df2aeb2e04d2dbdab949834a9113ec6d0963081b17c92cffb057e",
          "transactionIndex": "0x7f",
          "logIndex": "0xe2",
          "removed": false
        },
        {
          "address": "0x7a46dcce4c22cd86a9a452a14c9da3c4f82acff8",
          "topics": [
            "0xddf252ad1be2c89b69c2b068fc378daa952ba7f163c4a11628f55a4df523b3ef",
            "0x000000000000000000000000b1562b51c970f3a007614c2aaa60f4dc1c216362",
            "0x000000000000000000000000226c5200388b33192121e1627f90ca83d68e5f05"
          ],
          "data": "0x00000000000000000000000000000000000000000000000000000000000186a0",
          "blockHash": "0xd24108e2e0294dcc0977d6e22516d2fae9dab4aa560774d5de50984851143811",
          "blockNumber": "0x9faee7",
          "blockTimestamp": "0x69b98df4",
          "transactionHash": "0x9b57a251f00df2aeb2e04d2dbdab949834a9113ec6d0963081b17c92cffb057e",
          "transactionIndex": "0x7f",
          "logIndex": "0xe3",
          "removed": false
        },
        {
          "address": "0x226c5200388b33192121e1627f90ca83d68e5f05",
          "topics": [
            "0xff0133389f9bb82d5b9385826160eaf2328039f6fa950eeb8cf0836da8178944",
            "0x0000000000000000000000000000000000000000000000005fbc02272fbf20b7"
          ],
          "data": "0x0000000000000000000000007a46dcce4c22cd86a9a452a14c9da3c4f82acff800000000000000000000000000000000000000000000000000000000000186a0",
          "blockHash": "0xd24108e2e0294dcc0977d6e22516d2fae9dab4aa560774d5de50984851143811",
          "blockNumber": "0x9faee7",
          "blockTimestamp": "0x69b98df4",
          "transactionHash": "0x9b57a251f00df2aeb2e04d2dbdab949834a9113ec6d0963081b17c92cffb057e",
          "transactionIndex": "0x7f",
          "logIndex": "0xe4",
          "removed": false
        },
        {
          "address": "0x7a46dcce4c22cd86a9a452a14c9da3c4f82acff8",
          "topics": [
            "0xddf252ad1be2c89b69c2b068fc378daa952ba7f163c4a11628f55a4df523b3ef",
            "0x0000000000000000000000000000000000000000000000000000000000000000",
            "0x000000000000000000000000226c5200388b33192121e1627f90ca83d68e5f05"
          ],
          "data": "0x0000000000000000000000000000000000000000000000000000000000000000",
          "blockHash": "0xd24108e2e0294dcc0977d6e22516d2fae9dab4aa560774d5de50984851143811",
          "blockNumber": "0x9faee7",
          "blockTimestamp": "0x69b98df4",
          "transactionHash": "0x9b57a251f00df2aeb2e04d2dbdab949834a9113ec6d0963081b17c92cffb057e",
          "transactionIndex": "0x7f",
          "logIndex": "0xe5",
          "removed": false
        },
        {
          "address": "0x7a46dcce4c22cd86a9a452a14c9da3c4f82acff8",
          "topics": [
            "0xddf252ad1be2c89b69c2b068fc378daa952ba7f163c4a11628f55a4df523b3ef",
            "0x000000000000000000000000226c5200388b33192121e1627f90ca83d68e5f05",
            "0x0000000000000000000000000000000000000000000000000000000000000000"
          ],
          "data": "0x00000000000000000000000000000000000000000000000000000000000186a0",
          "blockHash": "0xd24108e2e0294dcc0977d6e22516d2fae9dab4aa560774d5de50984851143811",
          "blockNumber": "0x9faee7",
          "blockTimestamp": "0x69b98df4",
          "transactionHash": "0x9b57a251f00df2aeb2e04d2dbdab949834a9113ec6d0963081b17c92cffb057e",
          "transactionIndex": "0x7f",
          "logIndex": "0xe6",
          "removed": false
        },
        {
          "address": "0x23a5084fa78104f3df11c63ae59fcac4f6ad9dee",
          "topics": [
            "0x192442a2b2adb6a7948f097023cb6b57d29d3a7a5dd33e6666d33c39cc456f32",
            "0x0000000000000000000000000000000000000000000000005fbc02272fbf20b7",
            "0x000000000000000000000000000000000000000000000000000000000000000c"
          ],
          "data": "0x0000000000000000000000000000000000000000000000000000000000000020ed4fa19cb0a23086eccaf7d4b722dafda5ed5b13a629e8d08d088c4ec94fe62d000000000000000000000000000000000000000000000000de41ba4fc9d91ad90000000000000000000000000000000000000000000000005fbc02272fbf20b7000000000000000000000000000000000000000000000000000000000000000c0000000000000000000000000000000000000000000000000000000000000001000000000000000000000000b1562b51c970f3a007614c2aaa60f4dc1c21636200000000000000000000000000000000000000000000000000000000000001a000000000000000000000000000000000000000000000000000000000000001c00000000000000000000000000000000000000000000000000000000000000200000000000000000000000000779877a7b0d9e8603169ddbd7836e478b46247890000000000000000000000000000000000000000000000000059ed48de5691c20000000000000000000000000000000000000000000000000059ed48de5691c2000000000000000000000000000000000000000000000000000000000000028000000000000000000000000000000000000000000000000000000000000000000000000000000000000000000000000000000000000000000000000000000020000000000000000000000000b1562b51c970f3a007614c2aaa60f4dc1c2163620000000000000000000000000000000000000000000000000000000000000044181dcf10000000000000000000000000000000000000000000000000000000000000000000000000000000000000000000000000000000000000000000000000000000000000000000000000000000000000000000000000000000000000000000000000000000000000000000000000000000000000000000000000000000010000000000000000000000000000000000000000000000000000000000000020000000000000000000000000226c5200388b33192121e1627f90ca83d68e5f0500000000000000000000000000000000000000000000000000000000000000a000000000000000000000000000000000000000000000000000000000000000e000000000000000000000000000000000000000000000000000000000000186a000000000000000000000000000000000000000000000000000000000000001200000000000000000000000000000000000000000000000000000000000000020000000000000000000000000c9fc9ffaf5384333e4c6fd25a93e0a6c9686c0b900000000000000000000000000000000000000000000000000000000000000200000000000000000000000000000000000000000000000000000000ba43b740000000000000000000000000000000000000000000000000000000000000000200000000000000000000000000000000000000000000000000000000000015f90",
          "blockHash": "0xd24108e2e0294dcc0977d6e22516d2fae9dab4aa560774d5de50984851143811",
          "blockNumber": "0x9faee7",
          "blockTimestamp": "0x69b98df4",
          "transactionHash": "0x9b57a251f00df2aeb2e04d2dbdab949834a9113ec6d0963081b17c92cffb057e",
          "transactionIndex": "0x7f",
          "logIndex": "0xe7",
          "removed": false
        }
      ],
      "logsBloom": "0x0008000c000040000000000000000000000002000000000000000002000000000000008000000200000000000000000000000100080000000000001000300000080000000000000000100008040000000000000000040000008000000000000080000000020100000000000000000840000000002000000000000010000000000000000000000000000000000000800000000000000002008000000000000000020000000000088000000000010000000000010000000004000000000400000000000002084000000000000000000000000000000000000100000000000020200010000000000000000000000000200000000000040000000000000000000000",
      "type": "0x2",
      "transactionHash": "0x9b57a251f00df2aeb2e04d2dbdab949834a9113ec6d0963081b17c92cffb057e",
      "transactionIndex": "0x7f",
      "blockHash": "0xd24108e2e0294dcc0977d6e22516d2fae9dab4aa560774d5de50984851143811",
      "blockNumber": "0x9faee7",
      "gasUsed": "0x47a97",
      "effectiveGasPrice": "0x1018b2",
      "from": "0xb1562b51c970f3a007614c2aaa60f4dc1c216362",
      "to": "0x0bf3de8c5d3e8a2b34d2beeb17abfcebaf363a59",
      "contractAddress": null
    }
  ],
  "libraries": [],
  "pending": [],
  "returns": {},
  "timestamp": 1773768181258,
  "chain": 11155111,
  "commit": "b396366"
}