{
  "transactions": [
    {
      "hash": "0x1683fd0ac43cd25e015c2b3b0c39a187291a2fc61da08518ff0eae0401d9e340",
      "transactionType": "CALL",
      "contractName": null,
      "contractAddress": "0xc33996beb2fd3ad4348f85b3ead6cfce5c072cf0",
      "function": "grantMintAndBurnRole(address)",
      "arguments": [
        "0x4dF56710D47DfCBBC4AB1231661BBB5B7A32f24d"
      ],
      "transaction": {
        "from": "0xb1562b51c970f3a007614c2aaa60f4dc1c216362",
        "to": "0xc33996beb2fd3ad4348f85b3ead6cfce5c072cf0",
        "gas": "0x8fac",
        "value": "0x0",
        "input": "0x7cfb3d710000000000000000000000004df56710d47dfcbbc4ab1231661bbb5b7a32f24d",
        "nonce": "0x80",
        "chainId": "0xaa36a7"
      },
      "additionalContracts": [],
      "isFixedGasLimit": false
    }
  ],
  "receipts": [
    {
      "status": "0x1",
      "cumulativeGasUsed": "0xa85e43",
      "logs": [],
      "logsBloom": "0x00000000000000000000000000000000000000000000000000000000000000000000000000000000000000000000000000000000000000000000000000000000000000000000000000000000000000000000000000000000000000000000000000000000000000000000000000000000000000000000000000000000000000000000000000000000000000000000000000000000000000000000000000000000000000000000000000000000000000000000000000000000000000000000000000000000000000000000000000000000000000000000000000000000000000000000000000000000000000000000000000000000000000000000000000000000",
      "type": "0x2",
      "transactionHash": "0x1683fd0ac43cd25e015c2b3b0c39a187291a2fc61da08518ff0eae0401d9e340",
      "transactionIndex": "0x64",
      "blockHash": "0x09f6d91dc43e0247f83b7634893acaae41ab30ea17e7bc10dca62ca3d0ff3293",
      "blockNumber": "0x9fae9f",
      "gasUsed": "0x6805",
      "effectiveGasPrice": "0xf424a",
      "from": "0xb1562b51c970f3a007614c2aaa60f4dc1c216362",
      "to": "0xc33996beb2fd3ad4348f85b3ead6cfce5c072cf0",
      "contractAddress": null
    }
  ],
  "libraries": [],
  "pending": [],
  "returns": {},
  "timestamp": 1773767136994,
  "chain": 11155111,
  "commit": "b396366"
}