{
  "transactions": [
    {
      "hash": "0x46e711de6cf05e717e72cce7d9f5be241b19c9b5561be4e34f70c2485eaf1779",
      "transactionType": "CALL",
      "contractName": null,
      "contractAddress": "0x7074550975295cb1601e553dc03de087febe7fe9",
      "function": "grantMintAndBurnRole(address)",
      "arguments": [
        "0x041D8EebEf7c4EAA057E02b10c2E047727a57939"
      ],
      "transaction": {
        "from": "0xb1562b51c970f3a007614c2aaa60f4dc1c216362",
        "to": "0x7074550975295cb1601e553dc03de087febe7fe9",
        "gas": "0x8fac",
        "value": "0x0",
        "input": "0x7cfb3d71000000000000000000000000041d8eebef7c4eaa057e02b10c2e047727a57939",
        "nonce": "0x59",
        "chainId": "0xaa36a7"
      },
      "additionalContracts": [],
      "isFixedGasLimit": false
    }
  ],
  "receipts": [
    {
      "status": "0x1",
      "cumulativeGasUsed": "0xbad521",
      "logs": [],
      "logsBloom": "0x00000000000000000000000000000000000000000000000000000000000000000000000000000000000000000000000000000000000000000000000000000000000000000000000000000000000000000000000000000000000000000000000000000000000000000000000000000000000000000000000000000000000000000000000000000000000000000000000000000000000000000000000000000000000000000000000000000000000000000000000000000000000000000000000000000000000000000000000000000000000000000000000000000000000000000000000000000000000000000000000000000000000000000000000000000000",
      "type": "0x2",
      "transactionHash": "0x46e711de6cf05e717e72cce7d9f5be241b19c9b5561be4e34f70c2485eaf1779",
      "transactionIndex": "0x44",
      "blockHash": "0x16e6e8f65cdcd6c375f150e4244c49c1b1f0227623a9bf7f7a3e07f122c6bc70",
      "blockNumber": "0x9fae17",
      "gasUsed": "0x6805",
      "effectiveGasPrice": "0xf424a",
      "from": "0xb1562b51c970f3a007614c2aaa60f4dc1c216362",
      "to": "0x7074550975295cb1601e553dc03de087febe7fe9",
      "contractAddress": null
    }
  ],
  "libraries": [],
  "pending": [],
  "returns": {},
  "timestamp": 1773765121170,
  "chain": 11155111,
  "commit": "b396366"
}