{
  "transactions": [
    {
      "hash": "0x16cb0db355c9502faa4c8d9192f277b47693e4224023df43a4fc302d58a92cf4",
      "transactionType": "CALL",
      "contractName": null,
      "contractAddress": "0xda486975e59341f94b5ce3a2be063030d92bb5dc",
      "function": "grantMintAndBurnRole(address)",
      "arguments": [
        "0x5Bd3EE876cd4BB59869c9A6C6b63F13a5203CECB"
      ],
      "transaction": {
        "from": "0xb1562b51c970f3a007614c2aaa60f4dc1c216362",
        "to": "0xda486975e59341f94b5ce3a2be063030d92bb5dc",
        "gas": "0x8fac",
        "value": "0x0",
        "input": "0x7cfb3d710000000000000000000000005bd3ee876cd4bb59869c9a6c6b63f13a5203cecb",
        "nonce": "0x6a",
        "chainId": "0xaa36a7"
      },
      "additionalContracts": [],
      "isFixedGasLimit": false
    }
  ],
  "receipts": [
    {
      "status": "0x1",
      "cumulativeGasUsed": "0x88e14f",
      "logs": [],
      "logsBloom": "0x00000000000000000000000000000000000000000000000000000000000000000000000000000000000000000000000000000000000000000000000000000000000000000000000000000000000000000000000000000000000000000000000000000000000000000000000000000000000000000000000000000000000000000000000000000000000000000000000000000000000000000000000000000000000000000000000000000000000000000000000000000000000000000000000000000000000000000000000000000000000000000000000000000000000000000000000000000000000000000000000000000000000000000000000000000000",
      "type": "0x2",
      "transactionHash": "0x16cb0db355c9502faa4c8d9192f277b47693e4224023df43a4fc302d58a92cf4",
      "transactionIndex": "0x55",
      "blockHash": "0x635f5c95d14d9b863bd272640ba705b76f2f5872f87215e85e2c36ddd8a9e1ae",
      "blockNumber": "0x9fae71",
      "gasUsed": "0x6805",
      "effectiveGasPrice": "0xf424b",
      "from": "0xb1562b51c970f3a007614c2aaa60f4dc1c216362",
      "to": "0xda486975e59341f94b5ce3a2be063030d92bb5dc",
      "contractAddress": null
    }
  ],
  "libraries": [],
  "pending": [],
  "returns": {},
  "timestamp": 1773766477042,
  "chain": 11155111,
  "commit": "b396366"
}