{
  "transactions": [
    {
      "hash": "0x6c220d4600d946832a397020b79e5191247eb1ee8aad1f73dd70bfa58c98f726",
      "transactionType": "CALL",
      "contractName": null,
      "contractAddress": "0x3bea8bf92e8fdf09412c0c2a0a248ab768f74a4c",
      "function": "grantMintAndBurnRole(address)",
      "arguments": [
        "0xa8DC24F616c2b9942D48d847A7521a1555FCe894"
      ],
      "transaction": {
        "from": "0xb1562b51c970f3a007614c2aaa60f4dc1c216362",
        "to": "0x3bea8bf92e8fdf09412c0c2a0a248ab768f74a4c",
        "gas": "0x8fac",
        "value": "0x0",
        "input": "0x7cfb3d71000000000000000000000000a8dc24f616c2b9942d48d847a7521a1555fce894",
        "nonce": "0x75",
        "chainId": "0xaa36a7"
      },
      "additionalContracts": [],
      "isFixedGasLimit": false
    }
  ],
  "receipts": [
    {
      "status": "0x1",
      "cumulativeGasUsed": "0xb0ac8d",
      "logs": [],
      "logsBloom": "0x00000000000000000000000000000000000000000000000000000000000000000000000000000000000000000000000000000000000000000000000000000000000000000000000000000000000000000000000000000000000000000000000000000000000000000000000000000000000000000000000000000000000000000000000000000000000000000000000000000000000000000000000000000000000000000000000000000000000000000000000000000000000000000000000000000000000000000000000000000000000000000000000000000000000000000000000000000000000000000000000000000000000000000000000000000000",
      "type": "0x2",
      "transactionHash": "0x6c220d4600d946832a397020b79e5191247eb1ee8aad1f73dd70bfa58c98f726",
      "transactionIndex": "0x5a",
      "blockHash": "0x46d9e85fda75475a683dca6d7681a57bf04cfe687587c4e204546fd78f0418ad",
      "blockNumber": "0x9fae83",
      "gasUsed": "0x6805",
      "effectiveGasPrice": "0xf424a",
      "from": "0xb1562b51c970f3a007614c2aaa60f4dc1c216362",
      "to": "0x3bea8bf92e8fdf09412c0c2a0a248ab768f74a4c",
      "contractAddress": null
    }
  ],
  "libraries": [],
  "pending": [],
  "returns": {},
  "timestamp": 1773766764734,
  "chain": 11155111,
  "commit": "b396366"
}